:020000040000FA
:10000000A81300208D3800009538000097380000B4
:10001000993800009B3800009D3800000000000067
:100020000000000000000000000000009F380000F9
:10003000A138000000000000A3380000A53800002F
:10004000A7380000A9380000AB380000AD38000028
:10005000AF380000B1380000B3380000B5380000F8
:10006000B7380000B9380000BB380000BD380000C8
:10007000BF380000C1380000C3380000C538000098
:10008000C7380000C9380000CB380000CD38000068
:10009000CF380000D1380000D3380000D538000038
:1000A000D7380000D9380000DB380000DD38000008
:1000B000DF380000E1380000E3380000E5380000D8
:1000C000E7380000E9380000EB380000ED380000A8
:1000D000EF380000F1380000F3380000F538000078
:1000E000F7380000F938000000000000FB3800007D
:1000F000FD380000FF38000001390000033900001E
:100100000539000007390000093900000B390000EB
:1001100000000000000000000D3900000F39000051
:10012000113900001339000015390000173900009B
:10013000193900001B3900001D3900001F3900006B
:1001400000000000000000000000000000000000AF
:10015000213900002339000025390000273900002B
:10016000000000000000000000000000000000008F
:10017000000000000000000000000000000000007F
:10018000000000000000000000000000000000006F
:10019000000000000000000000000000000000005F
:1001A000000000000000000000000000000000004F
:1001B000293900002B3900002D3900002F390000AB
:1001C000313900003339000035390000373900007B
:1001D000393900003B3900003D3900003F3900004B
:1001E000413900004339000045390000000000009B
:1001F0000000000047390000493900004B39000079
:100200004D3900004F3900000000000000000000E0
:1002100051390000533900005539000057390000AA
:10022000593900005B3900005D3900005F3900007A
:10023000613900006339000065390000673900004A
:10024000693900006B3900006D3900006F3900001A
:1002500071390000733900007539000077390000EA
:10026000793900007B3900007D390000DFF80CD0BF
:1002700003F01CFE004800471B030000A8130020E9
:10028000EFF3108072B67047EFF310807047EFF312
:10029000108062B6704730BF704780F31188704796
:1002A000EFF31180704700000138FDD17047000066
:1002B00010B501F047FC01F05CFC3F4802F0C0FEC5
:1002C00000F0D6F900F014FC10BD10B52DED028B36
:1002D0003A48006803F0DCFB41EC180B53EC182B98
:1002E00037A13B4803F040FE394A02210A2000F0C2
:1002F000C3FE3848006803F0CBFB41EC180B53EC0D
:10030000182B35A1324803F02FFE314A03210A2071
:1003100000F0B2FEBDEC028B10BDFFF7C9FF01F08B
:1003200029F800F0DEFC30A20021322000F0A4FE0B
:1003300001F0FCF83EE001F055F800EE100AB8EECE
:10034000400ADFED2B0A20EE200ADFED2A0A80EEBC
:10035000201A1A4880ED001A01F095F800EE100AF4
:10036000B8EE400ADFED220A20EE200ADFED210A76
:1003700080EE201A174880ED001A01F021F910B123
:100380001DA000F0E4FB01F038F910B11CA000F052
:10039000DEFB01F04FF910B11BA000F0D8FB01F01B
:1003A00066F910B11AA000F0D2FBFFF78EFFC8204B
:1003B00000F090F9BFE70000400500C100000020F8
:1003C000496E7075743A2020252E32662020000078
:1003D0006C060020040000204F75747075743A207C
:1003E000252E326620200000432D3034000000000E
:1003F0003333534000F07F456B6579310D000000C9
:100400006B6579320D0000006B6579330D000000DB
:100410006B6579340D0000000246774831B101293F
:100420004CD002294CD003294FD14BE0172A43D29C
:10043000DFE802F00C0E111316181B1D20232527D0
:10044000292B2E30333537393B3D3F006B4833E0A5
:100450004FF4E11030E06A482EE04FF416102BE024
:10046000684829E04FF4611026E0674824E04FF423
:100470007A1021E04FF496001EE064481CE06448C6
:100480001AE0644818E0644816E04FF4E10013E015
:10049000624811E04FF4FA000EE061480CE0614858
:1004A0000AE0614808E0614806E0614804E052481B
:1004B00002E04FF47A0000BF00BF06E04E4804E0BF
:1004C000514802E047F2305000BF00BF704770B59E
:1004D0005848046E056F05F0004050B305F4006005
:1004E00040B1C5F30211C4F38310FFF795FF5249E1
:1004F000086002E051485049086004F48000002878
:1005000040D005F4006048B14B480168C5F3C550C0
:10051000401CB1FBF0F04849086033E046480168F0
:10052000C5F3C550401CB1FBF0F0400842490860DB
:1005300028E004F4006040B1C4F30111C4F3841056
:10054000FFF76AFF3C49086002E03C483A4908600E
:1005500004F48000B0B104F4006048B1364801688A
:10056000C4F3C350401CB1FBF0F03349086009E00C
:1005700031480168C4F3C350401CB1FBF0F040089F
:100580002D49086070BD2E49096841F470012C4A5C
:1005900011602C49274A11672B4911662B491166B6
:1005A0002B491167002000E0401CB0F57A7FFBD397
:1005B0002849204A116628491167002000E0401CA4
:1005C000B0F57A7FFBD325491A4A116600BF194955
:1005D000096D01F040014029F9D12149154A116600
:1005E0004FF0C0711167002000E0401C42F2107112
:1005F0008842FAD3704700000024F40040420F0004
:1006000080841E00999E360000093D00404B4C003E
:1006100000204E00808D5B0000C05D0000127A005B
:1006200080969800001BB7000080BB00C0E8CE0099
:10063000647ADA0000E00F400C0000200084D71735
:1006400088ED00E010288007D13A8E07422D9E01E8
:1006500000288001420D9E0100088001420DDE014C
:100660004205DE0126480068401C254908607047A5
:1006700010B502F090FD4FF47A71B0FBF1F4204612
:1006800002F05AFFAFF2230002F028FF01F09CFEB7
:1006900002F040FF02F010FF10BD194800687047DB
:1006A00070B500BF1648046802F050FF064602F01D
:1006B00048FFB6FBF0F04FF47A71484304EB440175
:1006C000C1EBC41100EBC1050D4800688442E9D1BB
:1006D000284670BD00B50146FFF7DFFF421800BF96
:1006E000FFF7DBFF9042FBD300BD70B50446FFF778
:1006F000D7FF051900BFFFF7D3FFA842FBD370BD9A
:10070000100000202DE9F04104460D461646E14A4E
:1007100052F824004FF08072526C1169884708B972
:10072000BDE8F081DC4850F82400DC490860D94A73
:1007300052F824004FF08072526C916988474FF054
:100740008070406960232A4631464769D348006873
:10075000B8474FF080704069C169D0480068884749
:1007600000BFDDE770B505460E46002413E0285DA6
:100770000A2807D14FF0807040690D210268C748F0
:1007800000689047295D4FF0807040690268C34857
:1007900000689047641CB442E9D3204670BD2DE93F
:1007A000F04106460F4600257F1E32E04FF0807074
:1007B0004069816BB9480068884744B2082C06D16B
:1007C00025B10321B6A0FFF7CDFF6D1E21E00A2C55
:1007D00006D1B448007818B10020B249087018E07A
:1007E0000D2C03D00A2C01D01B2C05D10D2C02D1CD
:1007F0000120AC4908700DE0BD4209D274556D1C52
:10080000E1B24FF0807040690268A44800689047E8
:1008100000BFCBE700BF002070550221A2A0FFF768
:10082000A1FF2846BDE8F08110B54FF08070406907
:10083000816B9A4800688847C0B210BD2DE9F34F1C
:1008400085B0064612E1002400E0641C305D2528D6
:1008500002D0305D0028F8D121463046FFF782FFF4
:10086000264430782528EDD1761C00254FF0200B4A
:1008700000BF16F9011B382932D014DC33292AD0E5
:1008800008DC25296FD0302922D0312921D0322906
:100890006AD11FE034291FD035291ED036291DD03A
:1008A0003729F5D11BE0692935D008DC392918D062
:1008B000582972D0632922D06429E9D12AE070290D
:1008C0006CD073293CD0752958D07829E0D163E0E9
:1008D00000BF00BF00BF00BF00BF00BF00BF00BF20
:1008E00000BF16F8010C302801D105B9834605EB8D
:1008F0008500450016F9010C30380544B9E7069823
:10090000006804900698001D0690012104A8FFF7D6
:1009100029FFAAE000BF0698006804900698001D11
:1009200006904FF000080498002805DA0498404229
:1009300004904FF0010901E04FF000090A2739E067
:10094000069850F804AB0690002400E0641C1AF8E6
:1009500004000028FAD121465046FFF703FFA542C4
:100960000BD92D1B05E076E07AE001214FA0FFF7BF
:10097000F9FE281EA5F10105F7D176E0069800687A
:1009800004900698001D06904FF000080A274FF0CB
:1009900000090FE001E001E000BF00BF0698006819
:1009A00004900698001D06904FF0000810274FF0A5
:1009B000000900BF012401E07C436D1E04FB07F029
:1009C0000499884205D804FB07F0B0FBF7F0A04279
:1009D000F2D0B9F1000F00D06D1EB9F1000F0AD0AE
:1009E000BBF1300F07D12D22404608F101080DF868
:1009F00000204FF00009012D0BD9102D09D26D1EDA
:100A000005E0404608F101080DF800B06D1E002D0C
:100A1000F7D1B9F1000F05D02D22404608F10108A9
:100A20000DF8002010E00498B0FBF4F0B0FBF7F1F3
:100A300007FB11001E4909680A5C404608F10108DD
:100A40000DF80020B4FBF7F4002CECD141466846C9
:100A5000FFF788FE09E0701E0121FFF783FE04E026
:100A6000052114A0FFF77EFE00BF00BF30780028EC
:100A70007FF4E9AE07B0BDE8F08F0FB408B503A866
:100A8000009000990298FFF7D9FE0020009001B075
:100A90005DF814FB7C490000704900001400002040
:100AA00008200800180000200D0A000020000000A7
:100AB0006C4900004552524F5200000070B50121B0
:100AC0003E4802F08CFE054629463C4802F08DFE69
:100AD00008E03A4802F02BFE0446E1B2374802F043
:100AE00039FE00BF354802F016FE0028F1D170BD76
:100AF00010B5334801F0F2FF324801F0EFFF01205A
:100B000001F021FC40F2014001F01DFC03214FF0F7
:100B1000402001F0C7FB02F03EFB044622464FF4A2
:100B2000E1310020FFF7EEFDAFF26F01234802F044
:100B300032FE0021152001F091FC01F045FC15204A
:100B400001F0AEFC50211D4802F041FE10BD0FB473
:100B500030B593B003AD17A80290029801904021E0
:100B60002846019B169A03F013FA044600200190D0
:100B7000002C04DA029013B030BC5DF814FB402C5A
:100B80000ED3601C03F0BCFE054615B90020029090
:100B9000F1E7611C2846029B169A03F0F9F9044616
:100BA0000020029021462846FFF7DCFD03A885427D
:100BB00002D0284603F07CFE00BFDCE700C0004006
:100BC000000800F0001800F000BF011EA0F10100B5
:100BD000FBD1704710B5044600228021FE4801F089
:100BE00021FA2146FD4801F002FE00BFFB4801F05A
:100BF0002CFE0028FAD110BD10B504468022114603
:100C0000F54801F00FFA2146F44801F0F0FD00BF6D
:100C1000F24801F01AFE0028FAD110BD70B5044662
:100C20002512E6B280221146EB4801F0FBF9294675
:100C3000EA4801F0DCFD00BFE84801F006FE0028AC
:100C4000FAD13146E54801F0D2FD00BFE34801F09A
:100C5000FCFD0028FAD170BD2DE9F04104460D4697
:100C600016461F462A20FFF7B5FF0220FFF7C4FFF4
:100C7000A11CC8B2FFF7C0FF0220FFF7BDFFB11CE7
:100C8000C8B2FFF7B9FF2B20FFF7A4FF0120FFF741
:100C9000B3FF691CC8B2FFF7AFFF0120FFF7ACFF3D
:100CA000791CC8B2FFF7A8FF2C20FFF793FFBDE81F
:100CB000F08170B504469F237F2200210846FFF78C
:100CC000CBFF00250AE0002604E0A0B2FFF7A6FF54
:100CD000701CC6B2802EF8DB681CC5B2A02DF2DBFA
:100CE00070BD1CB5BE4801F0F9FEBE4801F0F6FE2D
:100CF00040F6020001F027FB40F6024001F023FB22
:100D000041F2020001F01FFB41F2024001F01BFB27
:100D100034214FF0402001F098FA02F03CFA0446EA
:100D20000820B14900231A46CDE900102146AB48FE
:100D300001F0FCFCA94801F024FDAA48C01C01F008
:100D4000CDFE4021A44801F0F9F9A848A84908605F
:100D5000081D006840F08000091D08600020091F80
:100D60000860A048C01C01F0B9FE80219A4801F03B
:100D7000E5F980221146984801F054F99D48FFF7A3
:100D800023FF00228021944801F04CF99948FFF795
:100D90001BFF80221146904801F044F99548FFF767
:100DA00013FF002280218C4801F03CF900224021F1
:100DB000894801F037F98F48FFF706FF40221146B6
:100DC000854801F02FF98B48FFF7FEFE1120FFF751
:100DD00001FF8848FFF7F8FEB120FFF7FBFE012076
:100DE000FFF70AFF2C20FFF707FF2D20FFF704FF76
:100DF000B220FFF7EFFE0120FFF7FEFE2C20FFF7E9
:100E0000FBFE2D20FFF7F8FEB320FFF7E3FE0120E5
:100E1000FFF7F2FE2C20FFF7EFFE2D20FFF7ECFE90
:100E20000120FFF7E9FE2C20FFF7E6FE2D20FFF75B
:100E3000E3FEB420FFF7CEFE0720FFF7DDFEC02063
:100E4000FFF7C8FEA220FFF7D7FE0220FFF7D4FE6F
:100E50008420FFF7D1FEC120FFF7BCFEC520FFF7BD
:100E6000CBFEC220FFF7B6FE0A20FFF7C5FE00202A
:100E7000FFF7C2FEC320FFF7ADFE8A20FFF7BCFEDE
:100E80002A20FFF7B9FEC420FFF7A4FE8A20FFF74F
:100E9000B3FEEE20FFF7B0FEC520FFF79BFE0E204D
:100EA000FFF7AAFE3620FFF795FEC020FFF7A4FE4D
:100EB000C820FFF7A1FEE020FFF78CFE0F20FFF710
:100EC0009BFE1A20FFF798FE0F20FFF795FE1820D3
:100ED000FFF792FE2F20FFF78FFE2820FFF78CFEF2
:100EE0002020FFF789FE2220FFF786FE1F20FFF754
:100EF00083FE1B20FFF780FE2320FFF77DFE3720B7
:100F0000FFF77AFE0020FFF777FE0720FFF774FE59
:100F10000220FFF771FE1020FFF76EFEE120FFF7C1
:100F200059FE0F20FFF768FE1B20FFF765FE0F201C
:100F3000FFF762FE1720FFF75FFE3320FFF75CFE2E
:100F40002C20FFF759FE2920FFF756FE2E20FFF731
:100F500053FE3020FFF750FE3020FFF74DFE3920C2
:100F6000FFF74AFE3F20FFF747FE0020FFF744FE51
:100F70000720FFF741FE0320FFF73EFE1020FFF79A
:100F80003BFE2A20FFF726FE0020FFF735FE022059
:100F9000FFF732FE0020FFF72FFE8220FFF72CFE26
:100FA0002B20FFF717FE0020FFF726FE0320FFF798
:100FB00023FE0020FFF720FE8320FFF71DFEF02018
:100FC000FFF708FE0120FFF717FEF620FFF702FEED
:100FD0000020FFF711FE0FE000700040008000408D
:100FE000001C00F0000800F0005A62024B434F4C16
:100FF000207500403F420F003A20FFF7EBFD05202F
:10100000FFF7FAFD2920FFF7E5FD4FF6FF70FFF728
:1010100050FE1CBD2DE9F04706460D46174600243C
:1010200026E02B192919F21D3046FFF715FEA7F10E
:101030002000CF4901EB001010F804904FF0000899
:1010400011E009F0010020B14FF47840FFF7E6FD10
:1010500003E04FF6FF70FFF7E1FD4FEA690908F181
:10106000010000F0FF08B8F1080FEADB601CC4B211
:10107000102CD6DBBDE8F0872DE9F04107460D4680
:10108000164600240CE0325D4FF6FF7303EA0511AB
:10109000082303FB047398B2FFF7BCFF601C84B203
:1010A000305D0028EFD1BDE8F081F8B507460C4669
:1010B0001546002D0ADA4FF6FF7000EA04112D22C2
:1010C0003846FFF7A7FF684245B207E04FF6FF70CA
:1010D00000EA041120223846FFF79CFF642095FBAC
:1010E000F0F0C0B28DF800000A2095FBF0F00A2164
:1010F00090FBF1F201FB1200C0B28DF801000A2052
:1011000095FBF0F100FB1150C0B28DF802000026F3
:1011100011E01DF806303033DAB24FF6FF7303EA00
:101120000411731C4FF0080C0CFB037398B2FFF70B
:1011300071FF701CC6B2032EEBDBF8BDF8B5074695
:101140000E461446642094FBF0F0C0B28DF8000007
:101150000A2094FBF0F00A2190FBF1F201FB12004F
:10116000C0B28DF801000A2094FBF0F100FB1140A1
:10117000C0B28DF80200002511E01DF805303033B3
:10118000DAB24FF6FF7303EA06116B1C4FF0080C3E
:101190000CFB037398B2FFF73DFF681CC5B2032D2B
:1011A000EBDBF8BD2DE9FC4107460D461446002C4B
:1011B00009DA4FF6FF7000EA05112D223846FFF7D5
:1011C00029FF644207E04FF6FF7000EA0511202274
:1011D0003846FFF71FFF42F2107094FBF0F0C0B2E8
:1011E0008DF800004FF47A7094FBF0F00A2190FB28
:1011F000F1F201FB1200C0B28DF80100642094FBF3
:10120000F0F090FBF1F201FB1200C0B28DF8020089
:101210000A2094FBF0F090FBF1F201FB1200C0B247
:101220008DF803000A2094FBF0F100FB1140C0B2DE
:101230008DF80400002611E01DF806303033DAB2D4
:101240004FF6FF7303EA0511731C4FF0080C0CFBFB
:10125000037398B2FFF7DEFE701CC6B2052EEBDBFF
:10126000BDE8FC812DE9FC4107460E46144642F2DA
:10127000107094FBF0F0C0B28DF800004FF47A705B
:1012800094FBF0F00A2190FBF1F201FB1200C0B2D6
:101290008DF80100642094FBF0F090FBF1F201FB6B
:1012A0001200C0B28DF802000A2094FBF0F090FB0F
:1012B000F1F201FB1200C0B28DF803000A2094FB8A
:1012C000F0F100FB1140C0B28DF80400002511E0E0
:1012D0001DF805303033DAB24FF6FF7303EA06111A
:1012E0006B1C4FF0080C0CFB037398B2FFF792FED7
:1012F000681CC5B2052DEBDBBDE8FC812DE9F0478C
:1013000007464FF6FF70FFF7D4FC00262BE00025C0
:1013100026E006EB860C4FEACC0C0CF1270305EB1C
:10132000850C4FEACC0C0CF1270206EB860C4FEA39
:10133000CC0105EB850C4FEACC00FFF78DFC0024B7
:101340000AE017F8149007EB440090F8018049EA8E
:101350000820FFF763FC641CB4F5C86FF1DB6D1C5B
:10136000032DD6DB761C042ED1DBBDE8F087000010
:101370008849000010B5644801F0B0FB00BF624826
:1013800001F02FFB0028FAD0604801F0A7FB00BF56
:101390005E4801F026FB0028FAD00C215C4800F0E2
:1013A00046FE00231A4619465A4800F011FA6023F7
:1013B00004220021574800F032FA0021554800F07D
:1013C000FBF900231A460321524800F001FA612379
:1013D000002203214F4800F022FA03214D4800F07B
:1013E000EBF910BD10B586B0142101A802F0D3FAB4
:1013F00000244948406848498860084600684860B9
:101400000021444800F074FA00BF00221146414810
:1014100000F0B3F90028F8D000213E4800F0C8F9E8
:1014200001AA00213B4800F052FADDE9010108441D
:101430000399084404990844059908440521B0FB20
:10144000F1F035490860084690ED000AB8EE400A10
:10145000DFED320A20EE200AD0ED010AF8EE600A34
:101460009FED2F1A01EE200AD0ED020AF8EE600A75
:101470009FED2C1A01EE200ABCEEC00A10EE104AB5
:10148000204606B010BD38B50024274840682649DC
:10149000886008460068486003211E4800F028FA6A
:1014A00000BF002203211B4800F067F90028F8D094
:1014B0000321184800F07CF96A460321154800F022
:1014C00006FA194900980860084690ED000AB8EE3F
:1014D000400ADFED120A20EE200AD0ED010AF8EEF4
:1014E000600A9FED0F1A01EE200AD0ED020AF8EE15
:1014F000600A9FED0C1A01EE200ABCEEC00A10EE45
:10150000104A204638BD0000003800F0040800F002
:1015100000400240008003408C0600203333333FFC
:10152000CDCC4C3ECDCCCC3D9806002010B55E48CD
:1015300001F0D4FA00BF5C4801F053FA0028FAD059
:1015400010215A4800F0EBFD0A23012210215748D0
:1015500000F0F3FB564857490860081D006840F04A
:101560000100091D08600020091F086001214F4883
:1015700000F0D5FD0A23012211464C4800F0DDFBA6
:101580004948801E01F0AAFA00BF4748801E01F0BA
:1015900028FA0028F9D00421474800F0C0FD0A23AA
:1015A00001220421444800F0C8FB0821424800F011
:1015B000B6FD0A23012208213F4800F0BEFB10BD02
:1015C00070B5012400251021384800F025FD04469F
:1015D0007CB90A20FFF77EF81021344800F01CFD8A
:1015E000044634B935480068844201D0012500E042
:1015F000002532480460284670BD70B501240025DE
:1016000001212A4800F008FD04467CB90A20FFF7B2
:1016100061F80121254800F0FFFC044634B9284850
:101620000068844201D0012500E0002524480460C0
:10163000284670BD70B50124002504211E4800F025
:10164000EBFC04467CB90A20FFF744F804211A4851
:1016500000F0E2FC044634B91A480068844201D024
:10166000012500E0002517480460284670BD70B5CC
:10167000012400250821104800F0CEFC04467CB966
:101680000A20FFF727F808210B4800F0C5FC0446A4
:1016900034B90D480068844201D0012500E00025DE
:1016A00009480460284670BD050800F0005002405B
:1016B0004B434F4C20550240007000401C0000205E
:1016C00020000020240000202800002010B5024641
:1016D000F64B1B68F64C2340F64CA34209D1F64B5F
:1016E0009A4202D101F11E0301E001F140031846C4
:1016F00011E0EE4B1B68EE4C2340F04CA34209D1A5
:10170000ED4B9A4202D101F11E0301E001F13E03CB
:10171000184600E0002010BD2DE9F04105460E46B8
:10172000144631462846FFF7D1FF07462146384682
:1017300000F05AFE384600F0B3FEBDE8F08170B507
:1017400004460D4629462046FFF7C0FF06463046B0
:1017500000F0E2FE304600F061FE70BD82680123B9
:101760008B409A438260704701228A40C26082683F
:1017700001238B401A438260704730B5034632B173
:10178000DC684FF001158D4004EA05000FE05C684D
:1017900001258D4045F4803504EA050000F48034CD
:1017A0002CB140F470204FF480348C40A04330BD05
:1017B00001228A40C2607047026801238B401A43AD
:1017C00002607047026801238B409A4302607047B1
:1017D00070B51446890045690F268E40B54304F064
:1017E0000F068E4035434561056A0F268E40B5438E
:1017F00003F003068E403543056204F00F02062A0B
:101800000CD3092A0AD8951FEA00C56930269640EC
:10181000B54304F0300696403543C56170BD70B5E0
:101820000C46650140352844920005680F26964015
:10183000B54303F00F0696403543056085690F26D2
:101840009640B543C3F30326964035438561466809
:101850000F25954026EA0505C3F303169640354348
:101860004560C6690F25954026EA0505C3F3035672
:1018700096403543C56103F4702575B141690F2564
:101880009540A943C3F30245954029434161056949
:10189000012696403543056104E00569012696401E
:1018A000B543056170BD0246106901238B401840A5
:1018B000704701228A400261704702469069012305
:1018C0008B401840704701228A408261704710B5F2
:1018D00003464C0140342344002002E09C6810C2BF
:1018E000401CDC6804F480740CB90828F6D310BDE1
:1018F00010B50A0C120401F00F040123A3401A438F
:10190000836A1A43826210BDF0B503460024520870
:1019100001E0641C5208002AFBD1674DAB4201D1A3
:10192000002000E0012000EB4006654F3E44745467
:10193000F0BD70B5604DA84201D1002400E0012443
:101940004D014035284404EB44055D4E35446E5C42
:101950000425B5406A4304EB4405594E35446E5C9A
:10196000012505FA06F124E005680F269640B543E7
:1019700003F00F0696403543056085690F269640B3
:10198000B543C3F3032696403543856146680F256A
:10199000954026EA0505C3F3031696403543456096
:1019A000012904D0466806259540AE434660121DC5
:1019B000491E0029D8D170BDF0B514463E4FB8423B
:1019C00001D1002200E001224F014037384419E0E4
:1019D000002602EB4207DFF8E8C0674417F801C0B1
:1019E000012707FA0CF502E087683E446D1E002DC2
:1019F000FAD102EB4207DFF8C8C067447F5C26FAE1
:101A000007F780C41F1EA3F10103E1D1F0BD00223E
:101A1000490801E0521C49080029FBD102637047C4
:101A200000F5606343F82120704730B542EA034572
:101A300000F5646444F8215030BD70B504460020C0
:101A40002AB101F11005012606FA05F5284313B164
:101A500001258D402843C4F8000D70BD82684FF405
:101A600080338B409A438260704782684FF48033A2
:101A70008B401A43826070470146486B7047416350
:101A8000704782688A438260704782680A43826036
:101A90007047024609B1D06805E0506800F4803311
:101AA0000BB140F470207047C160704700E00F40F8
:101AB0000000FF70000005100080034000000A10C5
:101AC0002C000020826B22F003020A4382637047DD
:101AD0000146886B00F00300704741627047014681
:101AE000486A704702684FF480738B401A43026063
:101AF000704702684FF480738B409A4302607047CE
:101B000001460868C0F30040704710B5C1F30313E5
:101B1000C0F8C43F531E0C4663F31F14C0F8C84FEF
:101B200010BD0246D2F8C80F19B1C0F305135B1CF3
:101B30000B6020F47C70D2F8C43F03F00F0340EA3E
:101B4000031070472648006840F47000244908607C
:101B500070472348006820F47000214908607047EE
:101B60002048006820F0804040F000401D49086097
:101B700070471C48006840F040401A4908607047B0
:101B80001848006820F04040164908607047154921
:101B90000831096821F080610143124A083211605E
:101BA000704710490831096821F0007101430D4A5E
:101BB0000832116070470B490831096821F08071C3
:101BC0000143084A08321160704706490831096824
:101BD00021F440010143034A0832116070470000BC
:101BE00088ED00E034EF00E030B50246FE4B1824EB
:101BF000FE480068FE4D2840FE4DA84201D1FE4B34
:101C00001B24002108E053F83100904203D103EB7C
:101C1000C100406830BD491CA142F4D30020F9E75F
:101C200002F001031BB1D0F800340B4302E0D0F8FE
:101C300000348B43C0F8003402F002031BB1D0F82B
:101C400020340B4302E0D0F820348B43C0F820341A
:101C5000704730B5024601208840C1B2D2F8003446
:101C6000D2F8204403EA010008B1012000E000207E
:101C700004EA01050DB1022500E00025284330BD2E
:101C800002F001031BB1D0F808340B4302E0D0F896
:101C900008348B43C0F8083402F002031BB1D0F8BB
:101CA00004340B4302E0D0F804348B43C0F804340E
:101CB00002F004031BB1D0F80C340B4302E0D0F85F
:101CC0000C348B43C0F80C3402F4803323B1D0F8C9
:101CD000383543F0010303E0D0F8383523F0010331
:101CE000C0F838357047F0B5024601208840C1B2CF
:101CF000D2F80834D2F80444D2F80C64D2F838553B
:101D000003EA010008B1012000E0002004EA010715
:101D10000FB1022700E00027384306EA01070FB1A0
:101D2000042700E00027384305F00107384310B1CD
:101D30004FF48030F0BD0020FCE7F0B5002416E041
:101D40000125A5400D4085B1D0F8C45F670003268A
:101D5000BE40B543C0F8C45FD0F8C45F6700C2F3AB
:101D60004116BE403543C0F8C45F651CECB2082C78
:101D7000E6DB02F001051DB1D0F800550D4302E08D
:101D8000D0F800558D43C0F8005502F002051DB192
:101D9000D0F804550D4302E0D0F804558D43C0F847
:101DA000045502F004051DB1D0F808550D4302E0BA
:101DB000D0F808558D43C0F8085502F008051DB14C
:101DC000D0F818550D4302E0D0F818558D43C0F8EF
:101DD000185502F010051DB1D0F83C550D4302E036
:101DE000D0F83C558D43C0F83C5503F001051DB1BA
:101DF000D0F80C550D4302E0D0F80C558D43C0F8D7
:101E00000C5503F002051DB1D0F810550D4302E04A
:101E1000D0F810558D43C0F8105503F004051DB1DE
:101E2000D0F814550D4302E0D0F814558D43C0F896
:101E3000145503F008051DB1D0F81C550D4302E000
:101E4000D0F81C558D43C0F81C5503F400751DB126
:101E5000D0F844550D4302E0D0F844558D43C0F806
:101E6000445503F440751DB1D0F840550D4302E0D0
:101E7000D0F840558D43C0F840551BB9D0F82855CF
:101E80000D4302E0D0F828558D43C0F82855F0BD29
:101E9000F0B514461D4601268E40F1B2D0F800651B
:101EA0000E400EB1012600E000263246D0F804654F
:101EB0000E400EB1022600E000263243D0F808653D
:101EC0000E400EB1042600E000263243D0F818651B
:101ED0000E400EB1082600E000263243D0F83C65E3
:101EE0000E400EB1102600E000263243D0F8C46F39
:101EF0004F00FE4006F0030642EA46122260D0F888
:101F00000C650E400EB1012600E000263346D0F8E5
:101F100010650E400EB1022600E000263343D0F8D3
:101F200014650E400EB1042600E000263343D0F8BD
:101F30001C650E400EB1082600E000263343D0F8A1
:101F400040650E404EB1D0F844650E4016B14FF4D6
:101F5000007601E04FF4807633432B60F0BDD0F87B
:101F600010240A43C0F810247047D0F810248A4384
:101F7000C0F810247047024611B1D2F81804704717
:101F8000D2F81404FBE7C0F81C14704770B504467F
:101F90000D462046FFF728FE06462946304600F04B
:101FA00023FA304600F07CFA70BD70B50446204636
:101FB000FFF71AFE0546284600F0AEFA284600F064
:101FC0002DFA70BD2DE9F04107460C4615463846FE
:101FD000FFF70AFE06463019294600F005FA3019C7
:101FE00000F05EFABDE8F081784F000000E00F409D
:101FF0000000FF7000000A103850000070B506465F
:102000000C463046FFF7F0FD0546281900F084FA2B
:10201000281900F003FA70BD0246002000EB810091
:1020200010587047002303EB8103C250704730B54E
:1020300004460D46002229462046FFF7F1FD002305
:10204000012229462046FFF778FE30BD30B5044610
:102050000D46022229462046FFF7E2FD08236622AC
:1020600029462046FFF769FE30BD30B504460D46CF
:10207000002229462046FFF7D3FD002301222946EE
:102080002046FFF75AFE30BD30B504460D46022209
:1020900029462046FFF7C4FD082301222946204691
:1020A000FFF74BFE30BD30B504460D4602222946EF
:1020B0002046FFF7B5FD0823012229462046FFF7F9
:1020C0003CFE30BD30B504460D460222294620466E
:1020D000FFF7A6FD0823662229462046FFF72DFEBE
:1020E00030BD30B504460D46022229462046FFF792
:1020F00097FD0823662229462046FFF71EFE30BDC5
:1021000030B504460D46022229462046FFF788FDD9
:102110000823662229462046FFF70FFE30BD30B562
:1021200004460D46002229462046FFF779FD082384
:10213000012229462046FFF700FE30BD30B5044697
:102140000D460823012229462046FFF7F6FD01220D
:1021500029462046FFF764FD30BD30B504460D46E4
:102160000923012229462046FFF7E7FD01222946DF
:102170002046FFF755FD30BD30B504460D4602221E
:1021800029462046FFF74CFD082301222946204618
:10219000FFF7D3FD30BD30B504460D460222294677
:1021A0002046FFF73DFD0923012229462046FFF77F
:1021B000C4FD30BD30B504460D46022229462046F6
:1021C000FFF72EFD0823012229462046FFF7B5FD23
:1021D00030BD30B504460D46022229462046FFF7A1
:1021E0001FFD0823662229462046FFF7A6FD30BDC5
:1021F00030B504460D46022229462046FFF710FD61
:102200000823012229462046FFF797FD30BD30B54F
:1022100004460D46022229462046FFF701FD082309
:10222000012229462046FFF788FD30BD30B504461F
:102230000D46022229462046FFF7F2FC0A2301221E
:1022400029462046FFF779FD30BD30B504460D46DE
:10225000022229462046FFF7E3FC082301222946F3
:102260002046FFF76AFD30BD30B504460D46022218
:1022700029462046FFF7D4FC0823012229462046A0
:10228000FFF75BFD30BD30B504460D4602222946FE
:102290002046FFF7C5FC0823012229462046FFF708
:1022A0004CFD30BD30B504460D460222294620467D
:1022B000FFF7B6FC0823012229462046FFF73DFD23
:1022C00030BD30B504460D46002229462046FFF7B2
:1022D000A7FC0023012229462046FFF72EFD30BD32
:1022E00030B504460D46022229462046FFF798FCE9
:1022F0000823012229462046FFF71FFD30BD30B5D7
:1023000004460D46002229462046FFF789FC4FF47B
:102310000273012229462046FFF70FFD30BD30B57C
:1023200004460D46002229462046FFF779FC4FF46B
:102330008473012229462046FFF7FFFC30BD014689
:10234000D1F84805704710B50146C1F307401B4B53
:10235000DB6E01248440234033B1012303EB4003AF
:10236000174C54F8230003E04300154C54F82300A5
:10237000C1F30722D0F82C350F249440A34301F079
:102380000F0494402343C0F82C3510BDD0F83425F9
:102390000A43C0F834257047D0F834258A43C0F882
:1023A00034257047D0F830250A43C0F830257047EF
:1023B000D0F830258A43C0F83025704700E00F4040
:1023C0001051000000BFFEE710B5FDF760FF08B137
:1023D000012010BD0020FCE710B5FDF751FF08B14A
:1023E000012010BD0020FCE730B50246B64C246841
:1023F000B64DAC420ED0B44C2368002005E053F833
:102400002040B24D45F82040401C9B28F7D3AF4CEC
:10241000AD4D2C60AD4C44F8221030BDAC49AB4AF8
:1024200042F820107047AB4951F82010AA4A1143D6
:10243000A54A121D11607047A34A121D126802F4CA
:10244000E061002006E0A34A52F820208A4200D131
:1024500002E0401C0828F6D300BF704710B50A46BA
:1024600083089E4C54F8233019688307DC0EFF2341
:10247000A34099438307DB0E02FA03F31943830851
:10248000964C54F82330196010BD01468808934AD1
:1024900052F8200000688A07D20ED040C0B27047C0
:1024A000042808D188491C31096841F48031864AE2
:1024B0001C3211602FE0052808D183491C310968BE
:1024C00041F40031804A1C32116024E0062808D112
:1024D0007D491C31096841F480217B4A1C3211601E
:1024E00019E00F2808D14FF0E021096941F00201FD
:1024F0004FF0E02211610EE010280CD3A0F1100182
:1025000001F01F0201219140A0F110025209744B09
:1025100053F8222011607047042808D16A491C3101
:10252000096821F48031684A1C3211602FE00528C7
:1025300008D165491C31096821F40031624A1C3216
:10254000116024E0062808D15F491C31096821F494
:1025500080215D4A1C32116019E00F2808D14FF02C
:10256000E021096921F002014FF0E02211610EE043
:1025700010280CD3A0F1100101F01F02012191409D
:10258000A0F110025209574B53F8222011607047F6
:1025900010B501460020042905D14B4A1C321268AF
:1025A00002F4803028E0052905D1474A1C32126820
:1025B00002F4003020E0062905D1434A1C3212689B
:1025C00002F4802018E00F2905D14FF0E0221269B3
:1025D00002F0020010E010290ED3A1F110025209FE
:1025E0003F4B53F822201268A1F1100303F01F049F
:1025F0000123A34002EA030010BD022808D132499A
:10260000091F096841F000412F4A121F116024E0A0
:102610000E2808D12C49091F096841F080512A4A27
:10262000121F116019E00F2808D12749091F0968F6
:1026300041F08061244A121F11600EE010280CD373
:10264000A0F1100101F01F0201219140A0F1100240
:102650005209254B53F82220116070470E2808D1EB
:102660001949091F096841F00061174A121F1160DA
:1026700019E00F2808D11449091F096841F00071B9
:10268000114A121F11600EE010280CD3A0F11001A6
:1026900001F01F0201219140A0F110025209134BD9
:1026A00053F822201160704710B504462046FDF70C
:1026B000F4FD10BD10B5FDF7F3FD10BDA0F1100144
:1026C0000B4A11607047000008ED00E00004002094
:1026D000C5230000A05100000000FA05C051000011
:1026E0005C520000705200008452000098520000BA
:1026F00000EF00E030B502466F4B04246F480068DD
:102700006F4D28406F4DA84201D16F4B00BF002193
:1027100008E053F83100904203D103EBC100406858
:1027200030BD491CA142F4D30020F9E72DE9F04F58
:102730000C461D46DDE909C815B94FF0000A01E055
:102740004FF0040A57464760B4FBFCF6002100BF77
:10275000891CB6FBF1FAAAF10103FF2BF8D801613D
:102760004FEA827A4FEA1A6902F0300249EA032AF4
:102770004AEA020AA8F1010B4AEA0B070760BDE822
:10278000F08F416841F0020141607047416821F0DB
:1027900002014160704770B504460D462046FFF7C0
:1027A000A9FF064629463046FFF71EFE3046FFF7D2
:1027B00077FE70BD70B504462046FFF79BFF0546C7
:1027C0002846FFF7A9FE2846FFF728FE70BD42699C
:1027D0000A434261704742698A4342617047024638
:1027E00009B1D06970479069FCE70162704700BF8A
:1027F000C26802F00202002AFAD0816070470246E5
:10280000D06800F0020010B19160012070470020F4
:10281000FCE700BFC26802F00402002AFAD0826816
:102820000A6070470246D06800F0040018B1906852
:102830000860012070470020FCE7426A0A434262B8
:102840007047426A8A43426270470146C868C0F3D3
:1028500000107047C0F8C81F70470146D1F8C80F74
:102860007047426822F4E0720A434260704700BF3A
:10287000C26802F00202002AFAD0426842F4006202
:102880004260816070470246D06800F0020030B1BB
:10289000506840F400605060916001207047002053
:1028A000FCE7416841F4806141607047416821F470
:1028B0008061416070470000AC52000000E00F40B2
:1028C0000000FF7000000A10CC52000002460021F8
:1028D0000AE0F74850F83100904204D3F44800EB86
:1028E000C10040687047491C0629F2D30020F9E76F
:1028F000F0B50146DFF8BCC3DCF860C1CCF3892336
:10290000DFF8B0C3DCF860C1CCF30905DFF8A4C37D
:10291000DCF864C1CCF3042C0CF10106DFF894C39D
:10292000DCF864C10CF01F0C0CF10107B1FBF7F1EE
:102930005A09A3EB421401FB05F001FB02FC00EB7A
:102940005C1001FB04FC00EB9C20B0FBF6F0F0BD3A
:10295000D8483C380068401C00027047D5480068E1
:10296000D5490840D549884206D1D248806800043C
:10297000400900F500607047CE484038006880B2DA
:10298000401CC002F7E7CB480068CB490840CC495F
:10299000884209D1C74840380068C0F302400A3075
:1029A000012101FA00F070474FF48060FBE7014617
:1029B000C1F30720C34A104400F0704040F000709B
:1029C000C1F30722BF4B1A44C2F3130240EA42107C
:1029D000CAB240EA8200006808B1012070470020B6
:1029E000FCE70146C1F30720B74A104400F07040ED
:1029F00040F00070C1F30722B34B1A44C2F3130234
:102A000040EA4210CAB240EA8200006808B10120E0
:102A100070470020FCE710B50121C0F30722AB4B43
:102A20001A4402F0704242F00072C0F30723A74C30
:102A30002344C3F3130342EA4312C3B242EA8302BC
:102A4000116010BD10B50021C0F307229F4B1A443E
:102A500002F0704242F00072C0F307239B4C234403
:102A6000C3F3130342EA4312C3B242EA8302116082
:102A700010BD18B50121C0F30722954B1A4402F08E
:102A8000704242F00072C0F30723914C2344C3F319
:102A9000130342EA4312C3B242EA830211600021E7
:102AA000009102E00099491C009100991029F9D386
:102AB0000021C0F30722864B1A4402F0704242F014
:102AC0000072C0F30723824C2344C3F3130342EA8A
:102AD0004312C3B242EA8302116018BD10B501214E
:102AE000C0F307227B4B1A4402F0704242F000729E
:102AF000C0F30723774C2344C3F3130342EA431282
:102B0000C3B242EA8302116010BD10B50021C0F3C8
:102B10000722704B1A4402F0704242F00072C0F378
:102B200007236C4C2344C3F3130342EA4312C3B29A
:102B300042EA8302116010BD10B50121C0F30722E3
:102B4000654B1A4402F0704242F00072C0F3072352
:102B5000614C2344C3F3130342EA4312C3B242EA73
:102B60008302116010BD10B50021C0F307225A4B3B
:102B70001A4402F0704242F00072C0F30723564C30
:102B80002344C3F3130342EA4312C3B242EA83026B
:102B9000116010BD10B50121C0F307224F4B1A443C
:102BA00002F0704242F00072C0F307234B4C234402
:102BB000C3F3130342EA4312C3B242EA8302116031
:102BC00010BD10B50021C0F30722444B1A4402F097
:102BD000704242F00072C0F30723404C2344C3F319
:102BE000130342EA4312C3B242EA8302116010BDEA
:102BF00030490968304A1140304A91420ED130B113
:102C00002C49096E41F000612A4A116618E02949F1
:102C1000096E21F00061274A116611E040B1254993
:102C2000B031096841F00051224AC2F8B01007E003
:102C30002049B031096821F000511E4AC2F8B01095
:102C4000704710B5044621462C20FFF7CDFB2C2001
:102C5000FFF726FC10BD10B52C20FFF75DFC2C20E3
:102C6000FFF7DCFB10BD1349496D0143114A516563
:102C700070471049496D81430E4A516570470D49AF
:102C800088657047014611B10A48806D7047094850
:102C9000006DFBE7124908607047114800687047F3
:102CA0000F490831086070470D48083000687047C8
:102CB0000855000000E00F400000FF700000051004
:102CC00000000A1000E30F4000EA0F4000E90F4047
:102CD00000E50F4000E60F4000E70F4000E80F401E
:102CE000B4E10F40FE4908607047FD49091D0860C6
:102CF0007047FC48FC49086000BFFEE710B5FDF7CF
:102D0000CAFA10BD10B5F848001D006840F0040074
:102D1000F549091D0860FDF7BEFAF348001D00687B
:102D200020F00400F049091D086010BDEF48C06D97
:102D30007047EE49C96D8143EC4AD1657047EB4954
:102D4000C86770470146EA48084050B101F00040AA
:102D5000E34A383A1060E64881380840E34AC2F84E
:102D60005001DF483838016001F4007088B100BFBD
:102D7000DB483438006800F440700028F8D0D848A8
:102D80003438006800F44070B0F5807F01D0002036
:102D900070470120FCE7D249503108607047D048A5
:102DA0005030006870472DE9FE4F05468A46CF48EF
:102DB0000068D0490840D049884202D10020BDE8CF
:102DC000FE8FC5F3841705F03800102805D1DFF811
:102DD0002C93002600BF152748E005F03800302866
:102DE00004D147F230594FF400163FE005F03800A7
:102DF000382804D14FF400494FF4800636E005F03E
:102E0000380078BB1A2F01DC092F01DA0020D6E741
:102E1000BB4850F827904FF4401646F04076B34830
:102E2000C06F20F01C000190072F03DB019840F0D9
:102E300010000190AD490198C8674FF40020009040
:102E400005E00098401E0090009800B905E0A748F2
:102E5000006D00F480700028F3D000BF009828B9FE
:102E60000020ACE7FFE74FF00009002605F46050B2
:102E7000002874D105F0380028B105F0380010287A
:102E800001D000209BE7C5F3026002909D48FFF748
:102E90001DFD9649C03108609448D0F8B0009A49A9
:102EA00000EA010444F000449048B0300460093F57
:102EB0009649029851F820005044401EB0FBFAF8A1
:102EC0008A48D0F8B00030438849B0310860029891
:102ED00000EBC00000EB40008D4901EBC00007EBA8
:102EE000470100EB810040688049C1F864017C48DB
:102EF00024380168A8F1010041EA00207B49C1F8AB
:102F00006401029800EBC00000EB4000804901EB37
:102F1000C00007EB470150F82100714928390968C2
:102F200001F4000108436E49283908604846FFF75C
:102F3000DFFC4FEA500A5046FFF7C8FC6B49C1F866
:102F4000C0000846D0F8600100F4000040B16748B6
:102F5000B030006840F08040C1F8B00008E02BE0DD
:102F60005F482838006840F400006049C1F86001FB
:102F70004FF4004B08E05A482038006800F0010088
:102F800000B104E0ABF1010BBBF1000FF3DC00BFBB
:102F9000BBF1000F0DD05548B030046846F0010079
:102FA00040F08050044344F000445048C0F8B04022
:102FB0003CE04FF0000A39E05048FFF787FC4B49EE
:102FC000C03108604948D0F8600120F4000047494A
:102FD000C1F860010846D0F8B0404E48044044F0C3
:102FE00000444248B0300460BAF1000F02D14FF003
:102FF00000080AE0B9FBFAF8B8F1000F01D0A8F117
:10300000010808F10100B9FBF0FA5046FFF75EFC39
:103010003649C03108603548D0F8B04046EA8820CB
:10302000044344F000443148B03004602F48B030CD
:10303000006820F470002D49C1F8B0005046BEE68B
:103040002DE9F04106462948046E056F44F40064FA
:1030500024F4800445F400650466056704F001006B
:10306000D8B106F00100C0B966F0010004404FF489
:1030700080701E498865084604664FF4002702E008
:103080007F1E07B905E01948006D00F48070002824
:10309000F6D000BF0FB9BDE8F08124F4FE6406F459
:1030A000FE6004431C4805401B49A13106EA0100AB
:1030B000054306F0080045EAC0050C4804660567AC
:1030C00024F4005406F40050044325F4005506F49B
:1030D0000050054340200549886505F000401DE08B
:1030E00088E10F400400FA050CED00E000E00F401D
:1030F000000100800000FF70000005100024F400B3
:10310000EC52000040787D0100FC0FE038550000D3
:1031100058530000FF0300EF8FFFFF7F18B10846F0
:103120000567046602E0D64804660567D548044092
:10313000C14306EA0100044325F0FC5506F0FC50AB
:10314000054306F0804040B144F4800425F4800536
:10315000CD4906EA0100054301E025F0804506F46B
:10316000006080B94FF4004706E0C848006800F0EE
:10317000010000B102E07F1E002FF6D100BF24F451
:10318000006425F40065BE48046605671020FDF75D
:103190008BF800BF7FE7F0B5B948036E026F02F00D
:1031A000004010B102F0700001E003F03000202870
:1031B00011D003DC38B1102815D10AE030280CD02A
:1031C000702810D10CE0B248C3F3841750F82710D0
:1031D0000BE0B04909E0B04907E047F2305104E0A4
:1031E0004FF4004101E00020F0BD00BF4FF0FF347C
:1031F00002F0004010B102F4006028B102F000407B
:1032000098BB03F4006080BBA048083805689C4860
:10321000D0F8646106F01F00401CC6F304277F1C31
:1032200010FB07F04000B1FBF0F1C5F30900484383
:10323000C5F389274F4300EB972143F4800390485F
:10324000006900F47040B0F5804F13D006DCB0F593
:10325000005F0BD0B0F5405F12D109E0B0F5E04F50
:103260000AD0B0F5104F0BD108E00BE08B4C08E012
:103270008B4C06E08B4C04E08B4C02E08B4C00E066
:1032800000BF00BF03F4800018B302F00040D8B1C3
:1032900002F0804090B102F0004010B102F40060F2
:1032A00028B102F0004048B903F4006030B94F0083
:1032B000C2F38650401CB7FBF0F10AE0C2F3C550E0
:1032C000401CB1FBF0F104E0C3F3C350401CB1FB60
:1032D000F0F18C4200D22146084685E76B4924393B
:1032E0000860704710B50246654B1B68704C234060
:1032F000704CA34208D121F0FC54531E44EAC3533E
:10330000624C243C236023E0501E01F0700333B173
:10331000102B0ED0302B05D0702B09D105E040F4D6
:10332000401007E040F4001004E040F4800001E0A9
:1033300000BF00BF00BF01F002030BB140F000402E
:1033400001F080430BB140F08040504B243B1860AB
:1033500010BD4B49096E21F4F0110143484A116632
:1033600070474748006E00F4801008B9002070478D
:103370004348006E00F4F010F9E74149C96E00F0CF
:103380000F0301229A4011433D4AD16670473C49E0
:10339000C96E00F00F0301229A409143384AD1666A
:1033A00070473748006F20F4804035490867704700
:1033B0003348006F40F48040314908677047304916
:1033C000886370472E48006E70472D49096E01438F
:1033D0002B4A116670472DE9F04F054628480068D2
:1033E000DFF8CCE000EA0E00DFF8C8E0704503D15A
:1033F00000200860BDE8F08F2148B030076807F072
:103400008050B0F1805F02D000200860F2E7C5F381
:1034100084161F4850F826401C480838026818488F
:10342000D0F86431C2F3090CC2F3892803F01F09F4
:10343000C3F3042A04FB0CF004FB08FE00EB9E2BF4
:1034400009F101000AF1010E10FB0EF0BBFBF0FBCD
:10345000C1F800B00120CDE70948406E7047084927
:10346000496E8143064A516670474A1ED2B20243F2
:10347000064B203B1A60704704493039086070479A
:1034800000E00F40FEFF3FF80000404068E10F40C1
:10349000EC5200000024F40000093D0000B4C40414
:1034A00080F0FA02005A620240787D01002D31015D
:1034B0000000FF70000005104FF0E020006940F0B0
:1034C00005004FF0E021086170474FF0E0200069EF
:1034D00020F001004FF0E0210861704710B504466C
:1034E00021460F20FEF780FF4FF0E020006940F0FA
:1034F00002004FF0E021086110BD10B54FF0E02050
:10350000006920F002004FF0E02108610F20FEF773
:1035100085FF10BD4FF0E020006940F002004FF041
:10352000E021086170474FF0E020006920F00200C0
:103530004FF0E02108617047411E4FF0E0225161D9
:1035400070474FF0E0204069401C70474FF0E0208A
:103550008069704730B50246C74B0824C7480068E9
:10356000C74D2840C74DA84201D1C74B00BF00211D
:1035700008E053F83100904203D103EBC1004068EA
:1035800030BD491CA142F4D30020F9E7C26A22F001
:1035900086020A43C26270470146C86A00F086008C
:1035A000704741EA02034363704710B5436B03F071
:1035B00007040C6003F03804146010BDC16A41F0C8
:1035C0001001C162016B40F2013211430163704787
:1035D00000BF816901F008010029FAD1C16A21F018
:1035E0001001C162016B40F20132914301637047E7
:1035F000F0B504460E4615461F462046FFF7E8FF85
:10360000B6EB051F05D2206B40F0200020636D084B
:1036100003E0206B20F020002063F000B0FBF5F009
:10362000401C43089809606203F03F00A062E76213
:103630000020A0612046FFF7C1FFF0BDF0B5446A4D
:10364000856A8E00402707FB0457B6FBF7F6166025
:10365000066B06F0200616B1166876001660C66A7C
:1036600006F0EE061E60F0BDC16A41F01001C162B5
:103670007047C16A21F01001C162704721B1026B2D
:1036800042F00602026303E0026B42F002020263B0
:103690007047016B21F0060101637047C16A21F098
:1036A000E60141F06E01C162026B42F00802026362
:1036B0007047016B21F0080101637047026B01F450
:1036C00040631A4302637047026B01F440639A43FC
:1036D000026370470146086B00F440607047014682
:1036E000886940F2071210407047026B22F4404292
:1036F0000A43026370470146086B00F4404070477C
:10370000026B22F010020A43026370470146086B05
:1037100000F01000704701468869012222EA10106B
:10372000704701468869012222EA5010704701461D
:10373000886900F0100008B9086870474FF0FF3042
:10374000FBE7014600BF886900F010000028FAD1AD
:10375000086870470246906900F0200010B91160B7
:10376000012070470020FCE700BF826902F02002C0
:10377000002AFAD10160704719B1C26A42F0010211
:1037800002E0C26A22F00102C26270470146886903
:10379000C0F3C000704770B504460D462046FFF7E1
:1037A000D9FE064629463046FEF71EFE3046FEF795
:1037B00077FE70BD70B504462046FFF7CBFE054688
:1037C0002846FEF7A9FE2846FEF728FE70BD826B4C
:1037D0000A4382637047826B8A4382637047024662
:1037E00009B1106C7047D06BFCE741647047826C84
:1037F0000A4382647047826C8A4382647047014640
:10380000486800F00F007047002141607047C0F821
:10381000C81F70470146D1F8C80F7047D0F8A410F0
:1038200041F40041C0F8A4107047D0F8A41021F46E
:103830000041C0F8A4107047C0F8A410C0F8A82038
:1038400070470A4600BF836903F08803802BFAD1D2
:10385000C16A21F0040343F08203C362026000BF27
:10386000836903F08803802BFAD1C1627047016B32
:1038700041F08001016370474055000000E00F40B7
:103880000000FF7000000A10805500003C4880478F
:103890003C480047FEE7FEE7FEE7FEE7FEE7FEE7FF
:1038A000FEE7FEE7FEE7FEE7FEE7FEE7FEE7FEE7F0
:1038B000FEE7FEE7FEE7FEE7FEE7FEE7FEE7FEE7E0
:1038C000FEE7FEE7FEE7FEE7FEE7FEE7FEE7FEE7D0
:1038D000FEE7FEE7FEE7FEE7FEE7FEE7FEE7FEE7C0
:1038E000FEE7FEE7FEE7FEE7FEE7FEE7FEE7FEE7B0
:1038F000FEE7FEE7FEE7FEE7FEE7FEE7FEE7FEE7A0
:10390000FEE7FEE7FEE7FEE7FEE7FEE7FEE7FEE78F
:10391000FEE7FEE7FEE7FEE7FEE7FEE7FEE7FEE77F
:10392000FEE7FEE7FEE7FEE7FEE7FEE7FEE7FEE76F
:10393000FEE7FEE7FEE7FEE7FEE7FEE7FEE7FEE75F
:10394000FEE7FEE7FEE7FEE7FEE7FEE7FEE7FEE74F
:10395000FEE7FEE7FEE7FEE7FEE7FEE7FEE7FEE73F
:10396000FEE7FEE7FEE7FEE7FEE7FEE7FEE7FEE72F
:10397000FEE7FEE7FEE7FEE7FEE7FEE7FEE7000004
:10398000870500006D020000D2B201E000F8012BB3
:10399000491EFBD270470022F6E710B513460A46CF
:1039A00004461946FFF7F0FF204610BD2DE9FE4FF3
:1039B00081EA030404F0004421F0004100944FF038
:1039C000000B23F0004350EA01045ED052EA0304E6
:1039D0005BD0C3F30A54C1F30A552C44A4F2F33468
:1039E0000194A0FB0254C1F3130141F48011C3F30D
:1039F000130343F4801301FB024400FB034E840ACB
:103A0000970A44EA815447EA8357A4FB0768029562
:103A10008D0A05FB07854FEA932C04FB0C54270500
:103A2000029D4FEA065847EA1637B5EB08056EEBDC
:103A3000070C870E920E47EA811742EA8312A7FB12
:103A40000201B6EB0B0164EB00042B0D43EA0C33CF
:103A50005E1844EB1C50DA465146E7FB0201C5F301
:103A600013044FEA0B3343EA14534FEA0432019C28
:103A700043EA0603A4F10C040294009CCDE900B4CF
:103A800000F07FF803B0BDE8F08F00200146F9E7B1
:103A900000F0004230F000400AD0C10D01F5607125
:103AA000C0F3160042EA0151C208400711437047B3
:103AB00000200146704730B50B4601460020202209
:103AC000012409E021FA02F59D4205D303FA02F52B
:103AD000491B04FA02F52844151EA2F10102F1DC8B
:103AE00030BD2DE9F05F0546002092469B46884692
:103AF0000646814640241BE028464146474622466A
:103B000000F020F853465A46C01A914110D311468E
:103B10001846224600F0DCF92D1A67EB01084F46E3
:103B200022460120002100F0D3F917EB00094E4195
:103B3000201EA4F10104DFDC484631462A464346F4
:103B4000BDE8F09F202A04DB203A21FA02F0002190
:103B5000704721FA02F3D040C2F12002914008439D
:103B60001946704710B5141E73F1000408DA401CA2
:103B700041F1000192185B411A4301D120F001008C
:103B800010BD2DE9F04D92469B4611B1B1FA81F27C
:103B900002E0B0FA80F22032904600F099F9044633
:103BA0000F4640EA0A0041EA0B0153465A460843D1
:103BB00013D0114653EA010019D0C8F14002504613
:103BC000FFF7C0FF05460E4650465946424600F0F4
:103BD0007FF9084305D0012004E020463946BDE8BE
:103BE000F08D0020054346EAE0762C4337430A98DF
:103BF0006305E40AA0EB08000022FD0A44EA4754EA
:103C00000A3002D500200146E9E701051019694193
:103C1000DDE9084500196941BDE8F04DA2E72DE94D
:103C2000FE4F804681EA0300C00F0C46009021F051
:103C3000004123F00045B8EB0200A94105D24046FF
:103C4000214690461C460B46024623F00040104396
:103C500047D0270DC7F30A00C3F30A510290401A58
:103C6000019040286BDAC3F3130040F4801B0098E6
:103C7000924620B10023D2EB030A63EB0B0B0198B1
:103C80005946C0F14002504600F022F906460D4662
:103C900050465946019A00F02AF910EB080061419C
:103CA000002487EA115284EAE7731A4340D0009A4D
:103CB00062B3019A012A4FEA075215DC001B61EB3F
:103CC00002014FF0004202EA0752CDE90042001C17
:103CD00041F5801132462B46FFF753FF03B0BDE894
:103CE000F08F40462146F9E7001B61EB0201001C02
:103CF00041F5801300185B412018A2F5001747EB2F
:103D0000030140EAD570B6196D4111E06D084FEA24
:103D1000360645EAC0754FEA0752001B61EB020107
:103D2000001C41F5801149084FEA3000001951414B
:103D300032462B4603B0BDE8F04FFFF713BF0098A3
:103D4000012240000023D0EB020263EBE0730098F5
:103D500021464FEAE074B8EB000061EB0401E9E7AB
:103D600083F000435BE781F0004158E72DE9F04D17
:103D700081EA030404F0004B21F0004514464FF0A3
:103D8000000A23F0004150EA050220D054EA010263
:103D90001DD0C5F30A570246C5F31303C1F3130040
:103DA000C1F30A5640F4801543F48013A7EB0608CC
:103DB000101BD64608F2FD3873EB050002D308F15C
:103DC000010801E092185B41B8F1000F03DA00200E
:103DD0000146BDE8F08D00204FF480110646844670
:103DE0000EE0171B73EB050705D3121B63EB0503EE
:103DF00006434CEA010C49084FEA300092185B4137
:103E000050EA0107EDD152EA030012D082EA040021
:103E100083EA0501084305D0101BAB4106D20122FD
:103E2000002306E000224FF0004302E06FF00102A1
:103E300053101AEB06004CEB085110EB0A0041EB53
:103E40000B01BDE8F04DFFF78DBEC1F30A52C1F37F
:103E5000130140F2FF3341F480119A4202DA00204C
:103E60000146704740F233439A42A2F2334202DCE9
:103E70005242FFF767BE00F02BB8000030B5041EB9
:103E800071F1000404DB4FF00044404264EB010197
:103E9000141E73F1000405DB1C464FF00043524230
:103EA00063EB0403994208BF904230BD064C074DB6
:103EB00006E0E06840F0010394E8070098471034FA
:103EC000AC42F6D3FCF7D6F9D4550000F455000007
:103ED000202A04DB203A00FA02F1002070479140CA
:103EE000C2F1200320FA03F3194390407047202ABF
:103EF00006DBCB17203A41FA02F043EAE07306E012
:103F000041FA02F3D040C2F1200291400843194621
:103F1000704770B58C1810F8015B15F0070301D1DC
:103F200010F8013B2A1106D110F8012B03E010F81C
:103F3000016B01F8016B5B1EF9D12B0705D400233F
:103F4000521E0DD401F8013BFAE710F8013BCB1AE1
:103F5000921C03E013F8015B01F8015B521EF9D5D6
:103F6000A142D8D3002070BD0FB4084B10B504A9EE
:103F700002AA039800F0F4F8044602A9002000F019
:103F800091FC204610BC5DF814FB0000A548000021
:103F90007CB5044600201D46164600290BD0491E5C
:103FA000CDE90041044B6A462946304600F0D8F876
:103FB000009A002111707CBD8F48000002E008C803
:103FC000121F08C1002AFAD170477047002001E093
:103FD00001C1121F002AFBD1704700002DE9FF5FCD
:103FE00082B00021DDE90430020DDDF840B003436A
:103FF00018D044F61050A2F2FF3242431514119823
:1040000001281FD0A5EB0B00401C5FEA000A4FF00F
:1040100000064E4FDFF83891B046504615D5CAF12C
:10402000000413E0119801244AA3012801D16FEA8A
:104030000B010298119AC0E90031C0E9024206B0B2
:10404000BDE8F09FCBF10000DFE704460021404AC5
:10405000491842EB0450CDE9001012E0E00707D008
:1040600032463B4640464946FFF7A0FC804689461B
:1040700032463B4610461946FFF798FC06460F4667
:104080006410002CEAD1DDE90401DDE90023BAF176
:10409000000F06DAFFF78AFC42464B46FFF786FC24
:1040A00005E0FFF763FE42464B46FFF75FFE04461E
:1040B0000E460022284BFFF7E1FE03D84FF0FF30F9
:1040C000014607E00022254B20463146FFF7A7FDB9
:1040D000FFF7BBFE102409E0002C0ADB0A220023B4
:1040E000FFF7FFFC039B30321A55641E50EA0102B1
:1040F000F2D1641C039AC4F111031444119A012AE9
:1041000003D0012208430DD10AE0084304D0002067
:104110004FF0110B119072E7A3EB0B056D1E0DE034
:104120005B4504DD4FF0000205F1010504E003DA10
:104130004FF00002A5F10105002AECD00298119978
:10414000C0E90231C0E9004579E7000000001440F1
:104150000000F03F300000000000F0430000E03FAE
:104160002DE9FF4F95B09B468946064600250FE294
:10417000252877D100242746F84A0121059400E03C
:10418000044316F8013F203B01FA03F01042F7D137
:1041900030782A2811D06FF02F033078A0F1300248
:1041A000092A16D8059A44F0020402EB820203EBB6
:1041B00042021044761C0590EFE759F8042B059253
:1041C000002A03DA504244F40054059044F00204FB
:1041D000761C30782E2816D116F8010F44F004040E
:1041E0002A280DD06FF02F023078A0F13003092B70
:1041F00009D807EB870302EB4303C718761CF3E7E4
:1042000059F8047B761C30786C280FD006DC4C28DB
:1042100017D068280DD06A2814D104E0742810D073
:104220007A280FD10DE044F400140AE044F480141D
:1042300001E044F440147278824202D104F5801403
:10424000761C761C307866280BD013DC582877D083
:1042500009DC002875D04528F6D04628F4D0472838
:104260001AD19DE118E0632835D0642879D06528FB
:1042700012D195E1702873D008DC6728F1D0692845
:104280006FD06E280DD06F2806D1B5E073282CD0E2
:10429000752875D0782874D05A46179990476D1CA8
:1042A00075E1C4F30250022809D003280DD0D9F8D3
:1042B000001004280DD00D6009F1040967E1D9F858
:1042C0000010EA17C1E90052F6E7D9F800100D8096
:1042D000F2E70D70F0E719F8041B8DF800100020CC
:1042E0008DF80100EA46012003E059F804AB4FF0D5
:1042F000FF3061074FF0000102D40DE008F1010129
:104300008846B9420FDA8045F8DB1AF80810002910
:10431000F4D108E008F1010188468142FADB1AF87D
:1043200008100029F6D105985B46A0EB0807214646
:104330003846179A00F094FA284400EB080507E085
:104340004DE029E10DE01AF8010B5A461799904704
:10435000B8F10108F7D25B4621463846179A13E1B7
:1043600042E00A220092C4F302524FF0000A022AED
:1043700008D059F804CB032A4FEAEC710AD00DE0BB
:1043800029E02AE009F1070121F00702F2E802C161
:10439000914609E00FFA8CFC4FEAEC71042A03D134
:1043A0004FFA8CFC4FEAEC71002907DA0A4600212B
:1043B000DCF1000C61EB02012D2202E0220504D5A4
:1043C0002B228DF80420012203E0E20701D02022F5
:1043D000F7E7904659E00A2102E010220DE0102193
:1043E0004FF0000A00910BE010224FF0000A44F059
:1043F00004040827009203E008224FF0000A00920C
:10440000C4F30252022A05D059F804CB0021032A32
:1044100008D009E009F1070121F00702F2E802C122
:10442000914605E01FFA8CFC042A01D10CF0FF0C28
:104430004FF00008220728D5702806D0009B83F093
:10444000100353EA0A0305D00EE040228DF8042041
:10445000012208E05CEA010206D030228DF8042037
:104460008DF8050002229046009B83F0080353EA72
:104470000A030AD15CEA010201D1620705D53022A4
:104480008DF804204FF001087F1E582804D034A076
:1044900003900EA802900DE036A0F9E7534660465F
:1044A000009AFFF71EFB84460398825C0298401E28
:1044B000029002705CEA0100F0D1029806A9081A85
:1044C00000F1200A600702D524F4803400E00127BF
:1044D000574502DDA7EB0A0000E0002000EB0A01CF
:1044E000009005984144401A0590E00306D45B46CD
:1044F0002146179A059800F0B3F90544002706E015
:1045000001A85A46C05D179990476D1C7F1C47450E
:10451000F6DBE0030CD55B462146179A059800F0C0
:104520009FF9054404E030205A46179990476D1CC6
:104530000099481E00900029F5DC08E002980299D5
:104540005A460078491C0291179990476D1CBAF1A0
:104550000001AAF1010AF1DC65E10000092801006F
:1045600030313233343536373839616263646566E9
:1045700000000000303132333435363738394142AB
:10458000434445460000000000F058F90544761CFD
:10459000307800287FF4ECAD19B02846BDE8F08FE4
:1045A000620700D4062709F1070222F0070CFCE895
:1045B0000223E14603F000485FEA080C02D00FF244
:1045C000702C0DE05FEA045C02D50FF2682C07E066
:1045D0005FEAC47C02D00FF2602C01E0AFF2700CF5
:1045E0004FF0FF3823F00043CDF850C065280CD0C1
:1045F00006DC452809D046281DD047283DD13DE09E
:10460000662818D067287ED138E00021112F01DB01
:10461000112000E0781CCDE9000106A90EA8FFF7E3
:10462000DDFCDDE90F010E9A03910021009207F1F4
:10463000010A04914DE04FF000400097CDE90110D0
:1046400006A90EA8FFF7CAFCDDE90F0203920E9B34
:1046500011990022DDF80CA00093049211B9791C85
:1046600000EB010AB7EB0A0004D4C0F1FF3007F1F8
:10467000010A0490AAEB0700019044E0012F00DA40
:1046800001270021112F01DD112000E03846CDE97E
:10469000000106A90EA8FFF7A1FCDDE90F010E9AA3
:1046A0000391002104910092BA4621070CD403998A
:1046B000514500DA8A46BAF1010F05DD009AAAF1E8
:1046C0000101515C302908D0B84202DA10F1040F20
:1046D00006DA0121CDE9011015E0AAF10101E9E7AF
:1046E000002805DC049901440491AAEB000102E0D2
:1046F000411C514500DD8A460499401A401C019036
:104700004FF000400290200704D40198504501DB8F
:10471000CDF8048000208DF84F0002980DF14F076E
:10472000B0F1004F25D02B200E9002984FF00208D8
:1047300000280CDA404202902D200E9007E00A215A
:104740000298FFF7B8F93031029007F8011DB8F16F
:104750000001A8F10108F2DC02980028EFD1791ECF
:104760000E980870307800F0200040F0450007F8FF
:10477000020D12A8C01B00F107081498007800B1C0
:10478000012000EB0A01019801EBE071059841441A
:10479000401A401E0590E00306D45B462146179A56
:1047A000059800F05DF805441498007818B15A4651
:1047B000179990476D1CE00324D55B462146179A54
:1047C000059800F04DF805441CE00498002807DB2C
:1047D000DDE90301884203DD0098405C179901E0A0
:1047E000179930205A469047049805F10105401C5E
:1047F00004900198401E019004D12E205A4617992A
:1048000090476D1CBAF10001AAF1010ADDDC05E058
:1048100017F8010B5A46179990476D1CB8F1000123
:10482000A8F10108F4DC5B462146179A0598ABE62F
:104830002D0000002B000000200000002DE9F041B9
:10484000044600251E461746880404D405E0394670
:104850002020B0476D1C641EF9D52846BDE8F081C4
:104860002DE9F041044600251E469046C80301D5B7
:10487000302700E02027880404D505E0414638466B
:10488000B0476D1C641EF9D52846BDE8F0814A6822
:10489000002A06D00A68531C0B6010704868401E3E
:1048A000486070470A68531C0B6010707047000026
:1048B00010B5002821D0114B0022001F196803E019
:1048C000814203D80A4649680029F9D152B11368D8
:1048D000841A9C4204D1006818441060104602E01B
:1048E000506000E0186039B102680B1A934203D19E
:1048F0000B681A4402604968416010BD3400002012
:10490000F0B50B30154D20F007010024144A0FE0DC
:1049100003688B420BD38B4205D95E1A4318476854
:10492000C3E9006700E04368136002C004E0021DB1
:1049300010680028ECD12046002802D1286808B170
:104940000020F0BD064A07481060074A121A22F0FC
:104950000702C0E9002401202860D7E738000020C2
:1049600034000020AC060020A8090020C05500003B
:1049700000C0004000D0004000E00040001800F0FF
:10498000011800F0021800F0000000000000000014
:1049900000000000000000000000000808080808EF
:1049A0000808000008080000004824241200000045
:1049B00000000000000000000000004848487E247D
:1049C00024247E24242400000000103C5252121C97
:1049D00030505052523C1010000000222515150D89
:1049E0002A585454522200000000000C1212120ADD
:1049F00076252919916E00000006040402000000CB
:104A0000000000000000000000402010100808080E
:104A100008080810102040000002040808101010B8
:104A200010101008080402000000000008086B1CA9
:104A30001C6B0808000000000000000000101010AF
:104A4000FE10101000000000000000000000000038
:104A50000000000006040402000000000000000046
:104A60007E000000000000000000000000000000C8
:104A7000000000000606000000004020202010106A
:104A80000808080404020200000000182442424200
:104A90004242424224180000000000101C10101076
:104AA00010101010107C00000000003C42424240F8
:104AB00020100804427E00000000003C42424020DA
:104AC00018204042423C00000000002030302824E2
:104AD0002422FE2020F800000000007E0202021EB8
:104AE00022404042221C0000000000182402023A2A
:104AF00046424242443800000000007E422020101E
:104B000010080808080800000000003C4242422447
:104B100018244242423C00000000001C2242424253
:104B2000625C4040241800000000000000001818DB
:104B3000000000001818000000000000000000083D
:104B400000000000000808080000004020100804D1
:104B500002040810204000000000000000007E0059
:104B6000007E000000000000000000020408102089
:104B700040201008040200000000003C4242462091
:104B800010101000181800000000001C225A555583
:104B90005555553A423C000000000008081814140E
:104BA000243C224242E700000000001F2222221E75
:104BB00022424242221F00000000007C42420101CA
:104BC00001010142221C00000000001F224242425B
:104BD00042424242221F00000000003F4212121EC9
:104BE00012120242423F00000000003F4212121E19
:104BF00012120202020700000000003C2222010102
:104C000001712122221C0000000000E742424242C2
:104C10007E42424242E700000000003E08080808C9
:104C200008080808083E00000000007C1010101062
:104C3000101010101010110F0000007722120A0E31
:104C40000A1212222277000000000007020202026C
:104C500002020202427F000000000077363636363C
:104C6000362A2A2A2A6B0000000000E346464A4AF8
:104C700052525262624700000000001C2241414132
:104C800041414141221C00000000003F424242429B
:104C90003E020202020700000000001C22414141C6
:104CA0004141414D321C60000000003F4242423E03
:104CB0001212222242C700000000007C424202047D
:104CC00018204042423E00000000007F49080808CA
:104CD00008080808081C0000000000E742424242A1
:104CE00042424242423C0000000000E7424222248D
:104CF00024141418080800000000006B2A2A2A2A2D
:104D00002A36141414140000000000E7422424186A
:104D10001818242442E7000000000077222214140F
:104D200008080808081C00000000007E2120101060
:104D300008040442423F00000078080808080808F8
:104D4000080808080808780000000204040408089D
:104D50000810102020204040001E101010101010CD
:104D60001010101010101E00001824000000000089
:104D70000000000000000000000000000000000033
:104D80007E00000000000000000608000000000097
:104D90000000000000000000000000000000001CF7
:104DA00022302C22326C0000000000000302021AA4
:104DB00026424242261A000000000000000000388F
:104DC0004402020244380000000000006040407CC1
:104DD0004242424262DC0000000000000000003C51
:104DE00042427E02423C0000000000003048083E83
:104DF00008080808083E0000000000000000007CD1
:104E000022221C023C42423C000000000302023A03
:104E10004642424242E700000000000C0C00000E37
:104E200008080808083E0000000000303000003884
:104E3000202020202020221E0000000003020272F9
:104E4000120A0E1222770000000000080E0808085F
:104E500008080808083E0000000000000000007F6D
:104E60009292929292B70000000000000000003B76
:104E70004642424242E70000000000000000003CC1
:104E800042424242423C0000000000000000001B81
:104E900026424242261A0207000000000000005885
:104EA00064424242645840E0000000000000007785
:104EB0004C040404041F0000000000000000007CFB
:104EC00042023C40423E0000000000000008083E54
:104ED00008080808483000000000000000000063D7
:104EE0004242424262DC0000000000000000007705
:104EF000222214140808000000000000000000DB5B
:104F000091525A2A24240000000000000000006E84
:104F1000241818182476000000000000000000E7A4
:104F20004224241818080806000000000000007E33
:104F300022100808447E000000C0202020202020ED
:104F4000102020202020C000101010101010101071
:104F500010101010101010100003040404040404B6
:104F60000804040404040300045A200000000000A4
:104F700000000000000000000040004010000000A1
:104F800000800540100000000050004011000000AB
:104F90000090054011000000006000401200000079
:104FA00000A0054012000000007000401300000047
:104FB00000B0054013000000004002401400000053
:104FC00000C0054014000000005002402E00000008
:104FD00000D005402E000000006002402F000000BD
:104FE00000E005402F00000000700240300000008B
:104FF00000F005403000000000D0034046000000F3
:105000000000064046000000001006404700000077
:105010000020064048000000003006407F000000ED
:105020000040064080000000005006408400000060
:10503000006006408C0000000040004010000000AE
:1050400000800540100000000050004011000000EA
:1050500000900540110000000060004012000000B8
:1050600000A0054012000000007000401300000086
:1050700000B0054013000000004002401400000092
:1050800000C0054014000000005002402E00000047
:1050900000D005402E000000006002402F000000FC
:1050A00000E005402F0000000070024030000000CA
:1050B00000F005403000000000D003404300000035
:1050C00000000640430000000010064044000000BD
:1050D0000020064045000000003006405800000057
:1050E0000040064059000000005006405C000000EF
:1050F0000060064064000000007006406C00000084
:10510000008006406D000000009006407F00000017
:1051100000400040008005400050004000900540E5
:105120000060004000A005400070004000B0054055
:105130000040024000C005400050024000D0054041
:105140000060024000E005400070024000F00540B1
:1051500000D003400000064000100640001006404A
:105160000020064000200640003006400030064087
:1051700000400640004006400050064000500640F7
:105180000060064000600640007006400070064067
:1051900000800640008006400090064000900640D7
:1051A00000070000000600000005000000040000E9
:1051B00000030000000200000001000000000000E9
:1051C0000000000018ED00E01CED00E020ED00E024
:1051D00000E400E004E400E008E400E00CE400E0A7
:1051E00010E400E014E400E018E400E01CE400E057
:1051F00020E400E024E400E028E400E02CE400E007
:1052000030E400E034E400E038E400E03CE400E0B6
:1052100040E400E044E400E048E400E04CE400E066
:1052200050E400E054E400E058E400E05CE400E016
:1052300060E400E064E400E068E400E06CE400E0C6
:1052400070E400E074E400E078E400E07CE400E076
:1052500080E400E084E400E088E400E000E100E0B5
:1052600004E100E008E100E00CE100E010E100E012
:1052700080E100E084E100E088E100E08CE100E012
:1052800090E100E000E200E004E200E008E200E07B
:105290000CE200E010E200E080E200E084E200E0E6
:1052A00088E200E08CE200E090E200E00080004054
:1052B00017000000009000403200000000A00040F5
:1052C0004900000000B000404A000000008000409B
:1052D00017000000009000403200000000A00040D5
:1052E0004600000000B000404700000040420F00B0
:1052F00000201C0080841E0000802500999E36003E
:105300000040380000093D0000803E0000004B00D6
:10531000404B4C0000204E00808D5B0000C05D00C3
:105320000080700000127A0000007D0080969800D6
:10533000001BB7000080BB00C0E8CE00647ADA0032
:105340000024F4000000FA0080A81201002D3101B1
:1053500000366E0140787D01400000000000000032
:10536000000100003E0008000000000000010000F5
:10537000A000000002000000000100003454010001
:1053800000000000000100002B700600000000007B
:1053900000010000280000000000000000010000E3
:1053A00027000100000000000001000020000000B4
:1053B000000000000001000050000000020000009A
:1053C000000100001AAC0000000000000001000015
:1053D0001794090000000000000100001698050065
:1053E00000000000000100001400000000000000A8
:1053F0000001000013800800000000000001000010
:10540000A0000000080000000001000010000000E3
:105410000000000000010000280000000200000061
:105420000001000040000000040000000001000036
:105430006000000000000000000100005D000C00A2
:10544000000000000001000050000000000000000B
:10545000000100004E0002000000000000010000FA
:1054600041AC010000000000000100003C00000011
:1054700000000000000100003A8009000000000068
:1054800000010000300000000000000000010000EA
:1054900028000000000000000001000027000100BB
:1054A0000000000000010000236006000000000072
:1054B0000001000021600800000000000001000061
:1054C0001E00000000000000000100001DC00400DC
:1054D0000000000000010000500000000200000079
:1054E00000010000180000000000000000010000A2
:1054F0001400000000000000000100006000000037
:1055000004000000000100000024F400300030001E
:10551000005A62029100910000879303D200D200EA
:1055200000B4C4041301130100E1F5055401540152
:10553000000E27079501950100688909001C4E0E91
:1055400000C000401500000000D000401600000020
:1055500000E000403100000000F000404B0000007F
:10556000000001404C000000001001404D00000010
:10557000002001404E000000003001404F000000BC
:1055800000C000401500000000D0004016000000E0
:1055900000E000403100000000F000404800000042
:1055A0000000014049000000001001404A000000D6
:1055B000002001404B000000003001404C00000082
:1055C0003031323334353637383961626364656679
:1055D00000000000F4550000000000206C060000F0
:1055E000123F0000105600006C0600203C0D000029
:1055F000CC3F0000A1C7C84280F0FA02DA010401E2
:10560000FF01FF01FF01FF01FF01FF014600000054
:040000050000026D88
:00000001FF
